:100000000C9446000C945D000C945D000C945D0013
:100010000C945D000C945D000C945D000C945D00EC
:100020000C945D000C945D000C945D000C945D00DC
:100030000C945D000C945D000C945D000C945D00CC
:100040000C945D000C945D000C945D000C945D00BC
:100050000C945D000C945D000C945D000C945D00AC
:100060000C945D000C945D000C945D000C945D009C
:100070000C945D000C945D000C945D000C945D008C
:100080000C945D000C945D000C945D0011241FBE67
:10009000CFEFD0E4DEBFCDBF11E0A0E0B1E0ECEAED
:1000A000F2E000E00BBF02C007900D92AE30B10746
:1000B000D9F70E9499000C9454010C940000CF933E
:1000C000DF9300D01F92CDB7DEB789837B836A832D
:1000D00089818A3031F48A819B81BC018DE00E9444
:1000E0005F0080EC90E0FC018081882F90E08072BE
:1000F0009927892BB1F386EC90E02981FC012083BC
:1001000080E090E00F900F900F90DF91CF910895D5
:10011000CF93DF93CDB7DEB78AE790E02AE730E0F0
:10012000F9012081206EFC0120830000DF91CF9136
:100130000895CF93DF9300D000D01F92CDB7DEB7E4
:1001400081E290E0FC01108282E290E02FEFFC015E
:10015000208384E290E02FEFFC01208385E290E091
:10016000FC0110820E9488001B821A828FEF8C8310
:10017000198288E790E0FC01808191819B838A83CA
:100180008A818D838C81982F9695969596958D81F1
:10019000981718F081E0898381C08C81982F9695FB
:1001A00096958D81981718F083E0898377C08D81AB
:1001B000482F50E08C81282F30E0C901880F991F0B
:1001C000820F931F99230CF4079695958795959523
:1001D000879595958795841795071CF087E0898307
:1001E0005DC08C81982F96958D81981718F08FE0BF
:1001F000898354C08D81482F50E08C81282F30E0B6
:10020000C901880F991F880F991F820F931F992387
:100210000CF407969595879595958795959587956F
:10022000841795071CF08FE1898338C08D81482F92
:1002300050E08C81282F30E0C901880F991F820F70
:10024000931F99230CF4039695958795959587951B
:10025000841795071CF08FE3898320C08D81482F78
:1002600050E08C81282F30E0C901880F991F880F3A
:10027000991F880F991F821B930B99230CF40796E3
:100280009595879595958795959587958417950765
:100290001CF08FE7898302C08FEF898385E290E0AD
:0C02A0002981FC01208365CFF894FFCF7A
:0E02AC0000000002000000005F0000000000E3
:00000001FF
